{
  "address": "0x1673E68bdFA1735bE44FB77b65f917BD0181464a",
  "abi": [
    {
      "inputs": [
        {
          "internalType": "contract IGUniPool",
          "name": "pool",
          "type": "address"
        }
      ],
      "name": "getPoolUnderlyingBalances",
      "outputs": [
        {
          "internalType": "uint256",
          "name": "amount0",
          "type": "uint256"
        },
        {
          "internalType": "uint256",
          "name": "amount1",
          "type": "uint256"
        }
      ],
      "stateMutability": "view",
      "type": "function"
    },
    {
      "inputs": [
        {
          "internalType": "contract IGUniPool",
          "name": "pool",
          "type": "address"
        },
        {
          "internalType": "uint256",
          "name": "amount0In",
          "type": "uint256"
        },
        {
          "internalType": "uint256",
          "name": "amount1In",
          "type": "uint256"
        },
        {
          "internalType": "uint16",
          "name": "slippageBPS",
          "type": "uint16"
        }
      ],
      "name": "getRebalanceParams",
      "outputs": [
        {
          "internalType": "bool",
          "name": "zeroForOne",
          "type": "bool"
        },
        {
          "internalType": "uint256",
          "name": "swapAmount",
          "type": "uint256"
        },
        {
          "internalType": "uint160",
          "name": "swapThreshold",
          "type": "uint160"
        }
      ],
      "stateMutability": "view",
      "type": "function"
    },
    {
      "inputs": [
        {
          "internalType": "contract IGUniPool",
          "name": "pool",
          "type": "address"
        },
        {
          "internalType": "uint256",
          "name": "balance",
          "type": "uint256"
        }
      ],
      "name": "getUnderlyingBalances",
      "outputs": [
        {
          "internalType": "uint256",
          "name": "amount0",
          "type": "uint256"
        },
        {
          "internalType": "uint256",
          "name": "amount1",
          "type": "uint256"
        }
      ],
      "stateMutability": "view",
      "type": "function"
    }
  ],
  "transactionHash": "0x06ef04cb533086b70bbd2d14a6bc913107040ebf8fefd3f6938ffcae914bdee2",
  "args": [],
  "solcInputHash": "4bcca421a5dc86d417052a20e60731ee",
  "bytecode": "0x608060405234801561001057600080fd5b50611510806100206000396000f3fe608060405234801561001057600080fd5b50600436106100415760003560e01c80636aee8f81146100465780638665f6bb14610084578063c0c108e8146100ac575b600080fd5b610059610054366004611193565b6100bf565b60408051931515845260208401929092526001600160a01b0316908201526060015b60405180910390f35b610097610092366004611168565b6103af565b6040805192835260208301919091520161007b565b6100976100ba36600461114c565b61045b565b600080600080876001600160a01b03166316f0115b6040518163ffffffff1660e01b815260040160206040518083038186803b1580156100fe57600080fd5b505afa158015610112573d6000803e3d6000fd5b505050506040513d601f19601f820116820180604052508101906101369190611130565b90506000816001600160a01b0316633850c7bd6040518163ffffffff1660e01b815260040160e06040518083038186803b15801561017357600080fd5b505afa158015610187573d6000803e3d6000fd5b505050506040513d601f19601f820116820180604052508101906101ab919061124c565b505050505050905060006127108761ffff16836101c891906113aa565b6101d29190611370565b604051634c4a790d60e11b8152600481018b9052602481018a905290915060009081906001600160a01b038d1690639894f21a9060440160606040518083038186803b15801561022157600080fd5b505afa925050508015610251575060408051601f3d908101601f1916820190925261024e918101906112ec565b60015b61025f57508990508861027b565b610269838f611420565b9450610275828e611420565b93505050505b6000806102888e87610a09565b9150915080600014156102b4576000836102a2878961132d565b995099509950505050505050506103a5565b816102c6576001846102a287896113f8565b60006102db83670de0b6b3a764000084610ace565b905060006102f76001600160a01b03891680600160601b610ace565b9050600061030a8383600160601b610ace565b9050600061032a82670de0b6b3a76400006103258282611358565b610ace565b90508688111561036f5760019d50610342898b6113f8565b9b506103688861035a83670de0b6b3a7640000611420565b670de0b6b3a7640000610ace565b9c50610399565b8787111561039957610381898b61132d565b9b506103968782670de0b6b3a7640000610ace565b9c505b50505050505050505050505b9450945094915050565b6000806000806103be8661045b565b915091506000866001600160a01b03166318160ddd6040518163ffffffff1660e01b815260040160206040518083038186803b1580156103fd57600080fd5b505afa158015610411573d6000803e3d6000fd5b505050506040513d601f19601f820116820180604052508101906104359190611118565b9050610442838783610ace565b945061044f828783610ace565b93505050509250929050565b6000806000836001600160a01b03166316f0115b6040518163ffffffff1660e01b815260040160206040518083038186803b15801561049957600080fd5b505afa1580156104ad573d6000803e3d6000fd5b505050506040513d601f19601f820116820180604052508101906104d19190611130565b90506000816001600160a01b031663514ea4bf866001600160a01b031663df28408a6040518163ffffffff1660e01b815260040160206040518083038186803b15801561051d57600080fd5b505afa158015610531573d6000803e3d6000fd5b505050506040513d601f19601f820116820180604052508101906105559190611118565b6040518263ffffffff1660e01b815260040161057391815260200190565b60a06040518083038186803b15801561058b57600080fd5b505afa15801561059f573d6000803e3d6000fd5b505050506040513d601f19601f820116820180604052508101906105c391906111f6565b5050505090506000826001600160a01b0316633850c7bd6040518163ffffffff1660e01b815260040160e06040518083038186803b15801561060457600080fd5b505afa158015610618573d6000803e3d6000fd5b505050506040513d601f19601f8201168201806040525081019061063c919061124c565b505050505050905060006106c2876001600160a01b0316639b1344ac6040518163ffffffff1660e01b815260040160206040518083038186803b15801561068257600080fd5b505afa158015610696573d6000803e3d6000fd5b505050506040513d601f19601f820116820180604052508101906106ba91906111dc565b60020b610b83565b90506000610702886001600160a01b031663727dd2286040518163ffffffff1660e01b815260040160206040518083038186803b15801561068257600080fd5b905060008061071385858589610f99565b91509150896001600160a01b03166370945c786040518163ffffffff1660e01b815260040160206040518083038186803b15801561075057600080fd5b505afa158015610764573d6000803e3d6000fd5b505050506040513d601f19601f820116820180604052508101906107889190611118565b8a6001600160a01b0316630dfe16816040518163ffffffff1660e01b815260040160206040518083038186803b1580156107c157600080fd5b505afa1580156107d5573d6000803e3d6000fd5b505050506040513d601f19601f820116820180604052508101906107f99190611130565b6001600160a01b03166370a082318c6040518263ffffffff1660e01b81526004016108249190611319565b60206040518083038186803b15801561083c57600080fd5b505afa158015610850573d6000803e3d6000fd5b505050506040513d601f19601f820116820180604052508101906108749190611118565b61087e9084611358565b6108889190611420565b9850896001600160a01b03166382d2a3fa6040518163ffffffff1660e01b815260040160206040518083038186803b1580156108c357600080fd5b505afa1580156108d7573d6000803e3d6000fd5b505050506040513d601f19601f820116820180604052508101906108fb9190611118565b8a6001600160a01b031663d21220a76040518163ffffffff1660e01b815260040160206040518083038186803b15801561093457600080fd5b505afa158015610948573d6000803e3d6000fd5b505050506040513d601f19601f8201168201806040525081019061096c9190611130565b6001600160a01b03166370a082318c6040518263ffffffff1660e01b81526004016109979190611319565b60206040518083038186803b1580156109af57600080fd5b505afa1580156109c3573d6000803e3d6000fd5b505050506040513d601f19601f820116820180604052508101906109e79190611118565b6109f19083611358565b6109fb9190611420565b975050505050505050915091565b600080610a158461045b565b909250905081158015610a26575080155b15610ac7576000610a69856001600160a01b0316639b1344ac6040518163ffffffff1660e01b815260040160206040518083038186803b15801561068257600080fd5b90506000610aa9866001600160a01b031663727dd2286040518163ffffffff1660e01b815260040160206040518083038186803b15801561068257600080fd5b9050610abf858383670de0b6b3a7640000610f99565b909450925050505b9250929050565b600080806000198587098587029250828110838203039150508060001415610b085760008411610afd57600080fd5b508290049050610b7c565b808411610b1457600080fd5b600084868809851960019081018716968790049682860381900495909211909303600082900391909104909201919091029190911760038402600290811880860282030280860282030280860282030280860282030280860282030280860290910302029150505b9392505050565b60008060008360020b12610b9a578260020b610ba7565b8260020b610ba79061146c565b9050610bb6620d89e71961144b565b60020b811115610bf05760405162461bcd60e51b81526020600482015260016024820152601560fa1b604482015260640160405180910390fd5b600060018216610c0457600160801b610c16565b6ffffcb933bd6fad37aa2d162d1a5940015b6001600160881b031690506002821615610c4b576080610c46826ffff97272373d413259a46990580e213a6113d9565b901c90505b6004821615610c75576080610c70826ffff2e50f5f656932ef12357cf3c7fdcc6113d9565b901c90505b6008821615610c9f576080610c9a826fffe5caca7e10e4e61c3624eaa0941cd06113d9565b901c90505b6010821615610cc9576080610cc4826fffcb9843d60f6159c9db58835c9266446113d9565b901c90505b6020821615610cf3576080610cee826fff973b41fa98c081472e6896dfb254c06113d9565b901c90505b6040821615610d1d576080610d18826fff2ea16466c96a3843ec78b326b528616113d9565b901c90505b6080821615610d47576080610d42826ffe5dee046a99a2a811c461f1969c30536113d9565b901c90505b610100821615610d72576080610d6d826ffcbe86c7900a88aedcffc83b479aa3a46113d9565b901c90505b610200821615610d9d576080610d98826ff987a7253ac413176f2b074cf7815e546113d9565b901c90505b610400821615610dc8576080610dc3826ff3392b0822b70005940c7a398e4b70f36113d9565b901c90505b610800821615610df3576080610dee826fe7159475a2c29b7443b29c7fa6e889d96113d9565b901c90505b611000821615610e1e576080610e19826fd097f3bdfd2022b8845ad8f792aa58256113d9565b901c90505b612000821615610e49576080610e44826fa9f746462d870fdf8a65dc1f90e061e56113d9565b901c90505b614000821615610e74576080610e6f826f70d869a156d2a1b890bb3df62baf32f76113d9565b901c90505b618000821615610e9f576080610e9a826f31be135f97d08fd981231505542fcfa66113d9565b901c90505b62010000821615610ecb576080610ec6826f09aa508b5b7a84e1c677de54f3e99bc96113d9565b901c90505b62020000821615610ef6576080610ef1826e5d6af8dedb81196699c329225ee6046113d9565b901c90505b62040000821615610f20576080610f1b826d2216e584f5fa1ea926041bedfe986113d9565b901c90505b62080000821615610f48576080610f43826b048a170391f7dc42444e8fa26113d9565b901c90505b60008460020b1315610f6357610f6081600019611396565b90505b610f71600160201b82611437565b15610f7d576001610f80565b60005b610f919060ff16602083901c611358565b949350505050565b600080836001600160a01b0316856001600160a01b03161115610fba579293925b846001600160a01b0316866001600160a01b03161015610fe657610fdf858585611036565b915061102d565b836001600160a01b0316866001600160a01b0316101561101f5761100b868585611036565b91506110188587856110a0565b905061102d565b61102a8585856110a0565b90505b94509492505050565b6000826001600160a01b0316846001600160a01b03161115611056579192915b6001600160a01b038416611096600160601b600160e01b03606085901b1661107e87876113f8565b6001600160a01b0316866001600160a01b0316610ace565b610f919190611396565b6000826001600160a01b0316846001600160a01b031611156110c0579192915b610f916001600160801b0383166110d786866113f8565b6001600160a01b0316600160601b610ace565b8051600281900b81146110fc57600080fd5b919050565b80516001600160801b03811681146110fc57600080fd5b600060208284031215611129578081fd5b5051919050565b600060208284031215611141578081fd5b8151610b7c816114b2565b60006020828403121561115d578081fd5b8135610b7c816114b2565b6000806040838503121561117a578081fd5b8235611185816114b2565b946020939093013593505050565b600080600080608085870312156111a8578182fd5b84356111b3816114b2565b9350602085013592506040850135915060608501356111d1816114ca565b939692955090935050565b6000602082840312156111ed578081fd5b610b7c826110ea565b600080600080600060a0868803121561120d578081fd5b61121686611101565b9450602086015193506040860151925061123260608701611101565b915061124060808701611101565b90509295509295909350565b600080600080600080600060e0888a031215611266578182fd5b8751611271816114b2565b965061127f602089016110ea565b9550604088015161128f816114ca565b60608901519095506112a0816114ca565b60808901519094506112b1816114ca565b60a089015190935060ff811681146112c7578283fd5b60c089015190925080151581146112dc578182fd5b8091505092959891949750929550565b600080600060608486031215611300578081fd5b8351925060208401519150604084015190509250925092565b6001600160a01b0391909116815260200190565b60006001600160a01b0382811684821680830382111561134f5761134f611486565b01949350505050565b6000821982111561136b5761136b611486565b500190565b60006001600160a01b038381168061138a5761138a61149c565b92169190910492915050565b6000826113a5576113a561149c565b500490565b60006001600160a01b03828116848216811515828404821116156113d0576113d0611486565b02949350505050565b60008160001904831182151516156113f3576113f3611486565b500290565b60006001600160a01b038381169083168181101561141857611418611486565b039392505050565b60008282101561143257611432611486565b500390565b6000826114465761144661149c565b500690565b60008160020b627fffff1981141561146557611465611486565b9003919050565b6000600160ff1b82141561148257611482611486565b0390565b634e487b7160e01b600052601160045260246000fd5b634e487b7160e01b600052601260045260246000fd5b6001600160a01b03811681146114c757600080fd5b50565b61ffff811681146114c757600080fdfea264697066735822122052eb65929e1d2f0350c12d585c9db93a2613884d56141a624976b0f34ae2340064736f6c63430008040033",
  "devdoc": {
    "kind": "dev",
    "methods": {},
    "version": 1
  },
  "userdoc": {
    "kind": "user",
    "methods": {},
    "version": 1
  },
  "storageLayout": {
    "storage": [],
    "types": null
  }
}