{
  "address": "0x14E6D67F824C3a7b4329d3228807f8654294e4bd",
  "abi": [
    {
      "inputs": [
        {
          "internalType": "contract IWETH",
          "name": "_weth",
          "type": "address"
        }
      ],
      "stateMutability": "nonpayable",
      "type": "constructor"
    },
    {
      "inputs": [
        {
          "internalType": "contract IGUniPool",
          "name": "_pool",
          "type": "address"
        },
        {
          "internalType": "uint256",
          "name": "_amount0Max",
          "type": "uint256"
        },
        {
          "internalType": "uint256",
          "name": "_amount1Max",
          "type": "uint256"
        },
        {
          "internalType": "uint256",
          "name": "_amount0Min",
          "type": "uint256"
        },
        {
          "internalType": "uint256",
          "name": "_amount1Min",
          "type": "uint256"
        },
        {
          "internalType": "address",
          "name": "_receiver",
          "type": "address"
        }
      ],
      "name": "addLiquidity",
      "outputs": [
        {
          "internalType": "uint256",
          "name": "amount0",
          "type": "uint256"
        },
        {
          "internalType": "uint256",
          "name": "amount1",
          "type": "uint256"
        },
        {
          "internalType": "uint256",
          "name": "mintAmount",
          "type": "uint256"
        }
      ],
      "stateMutability": "nonpayable",
      "type": "function"
    },
    {
      "inputs": [
        {
          "internalType": "contract IGUniPool",
          "name": "_pool",
          "type": "address"
        },
        {
          "internalType": "uint256",
          "name": "_amount0Max",
          "type": "uint256"
        },
        {
          "internalType": "uint256",
          "name": "_amount1Max",
          "type": "uint256"
        },
        {
          "internalType": "uint256",
          "name": "_amount0Min",
          "type": "uint256"
        },
        {
          "internalType": "uint256",
          "name": "_amount1Min",
          "type": "uint256"
        },
        {
          "internalType": "address",
          "name": "_receiver",
          "type": "address"
        }
      ],
      "name": "addLiquidityETH",
      "outputs": [
        {
          "internalType": "uint256",
          "name": "amount0",
          "type": "uint256"
        },
        {
          "internalType": "uint256",
          "name": "amount1",
          "type": "uint256"
        },
        {
          "internalType": "uint256",
          "name": "mintAmount",
          "type": "uint256"
        }
      ],
      "stateMutability": "payable",
      "type": "function"
    },
    {
      "inputs": [
        {
          "internalType": "address",
          "name": "_token0",
          "type": "address"
        },
        {
          "internalType": "address",
          "name": "_token1",
          "type": "address"
        }
      ],
      "name": "isToken0Weth",
      "outputs": [
        {
          "internalType": "bool",
          "name": "wethToken0",
          "type": "bool"
        }
      ],
      "stateMutability": "view",
      "type": "function"
    },
    {
      "inputs": [
        {
          "internalType": "contract IGUniPool",
          "name": "_pool",
          "type": "address"
        },
        {
          "internalType": "uint256",
          "name": "_amount0In",
          "type": "uint256"
        },
        {
          "internalType": "uint256",
          "name": "_amount1In",
          "type": "uint256"
        },
        {
          "internalType": "uint256",
          "name": "_amountSwap",
          "type": "uint256"
        },
        {
          "internalType": "bool",
          "name": "_zeroForOne",
          "type": "bool"
        },
        {
          "internalType": "address[]",
          "name": "_swapActions",
          "type": "address[]"
        },
        {
          "internalType": "bytes[]",
          "name": "_swapDatas",
          "type": "bytes[]"
        },
        {
          "internalType": "uint256",
          "name": "_amount0Min",
          "type": "uint256"
        },
        {
          "internalType": "uint256",
          "name": "_amount1Min",
          "type": "uint256"
        },
        {
          "internalType": "address",
          "name": "_receiver",
          "type": "address"
        }
      ],
      "name": "rebalanceAndAddLiquidity",
      "outputs": [
        {
          "internalType": "uint256",
          "name": "amount0",
          "type": "uint256"
        },
        {
          "internalType": "uint256",
          "name": "amount1",
          "type": "uint256"
        },
        {
          "internalType": "uint256",
          "name": "mintAmount",
          "type": "uint256"
        }
      ],
      "stateMutability": "nonpayable",
      "type": "function"
    },
    {
      "inputs": [
        {
          "internalType": "contract IGUniPool",
          "name": "_pool",
          "type": "address"
        },
        {
          "internalType": "uint256",
          "name": "_amount0In",
          "type": "uint256"
        },
        {
          "internalType": "uint256",
          "name": "_amount1In",
          "type": "uint256"
        },
        {
          "internalType": "uint256",
          "name": "_amountSwap",
          "type": "uint256"
        },
        {
          "internalType": "bool",
          "name": "_zeroForOne",
          "type": "bool"
        },
        {
          "internalType": "address[]",
          "name": "_swapActions",
          "type": "address[]"
        },
        {
          "internalType": "bytes[]",
          "name": "_swapDatas",
          "type": "bytes[]"
        },
        {
          "internalType": "uint256",
          "name": "_amount0Min",
          "type": "uint256"
        },
        {
          "internalType": "uint256",
          "name": "_amount1Min",
          "type": "uint256"
        },
        {
          "internalType": "address",
          "name": "_receiver",
          "type": "address"
        }
      ],
      "name": "rebalanceAndAddLiquidityETH",
      "outputs": [
        {
          "internalType": "uint256",
          "name": "amount0",
          "type": "uint256"
        },
        {
          "internalType": "uint256",
          "name": "amount1",
          "type": "uint256"
        },
        {
          "internalType": "uint256",
          "name": "mintAmount",
          "type": "uint256"
        }
      ],
      "stateMutability": "payable",
      "type": "function"
    },
    {
      "inputs": [
        {
          "internalType": "contract IGUniPool",
          "name": "_pool",
          "type": "address"
        },
        {
          "internalType": "uint256",
          "name": "_burnAmount",
          "type": "uint256"
        },
        {
          "internalType": "uint256",
          "name": "_amount0Min",
          "type": "uint256"
        },
        {
          "internalType": "uint256",
          "name": "_amount1Min",
          "type": "uint256"
        },
        {
          "internalType": "address",
          "name": "_receiver",
          "type": "address"
        }
      ],
      "name": "removeLiquidity",
      "outputs": [
        {
          "internalType": "uint256",
          "name": "amount0",
          "type": "uint256"
        },
        {
          "internalType": "uint256",
          "name": "amount1",
          "type": "uint256"
        },
        {
          "internalType": "uint128",
          "name": "liquidityBurned",
          "type": "uint128"
        }
      ],
      "stateMutability": "nonpayable",
      "type": "function"
    },
    {
      "inputs": [
        {
          "internalType": "contract IGUniPool",
          "name": "_pool",
          "type": "address"
        },
        {
          "internalType": "uint256",
          "name": "_burnAmount",
          "type": "uint256"
        },
        {
          "internalType": "uint256",
          "name": "_amount0Min",
          "type": "uint256"
        },
        {
          "internalType": "uint256",
          "name": "_amount1Min",
          "type": "uint256"
        },
        {
          "internalType": "address payable",
          "name": "_receiver",
          "type": "address"
        }
      ],
      "name": "removeLiquidityETH",
      "outputs": [
        {
          "internalType": "uint256",
          "name": "amount0",
          "type": "uint256"
        },
        {
          "internalType": "uint256",
          "name": "amount1",
          "type": "uint256"
        },
        {
          "internalType": "uint128",
          "name": "liquidityBurned",
          "type": "uint128"
        }
      ],
      "stateMutability": "nonpayable",
      "type": "function"
    },
    {
      "inputs": [],
      "name": "weth",
      "outputs": [
        {
          "internalType": "contract IWETH",
          "name": "",
          "type": "address"
        }
      ],
      "stateMutability": "view",
      "type": "function"
    },
    {
      "stateMutability": "payable",
      "type": "receive"
    }
  ],
  "transactionHash": "0x3968651a1210a77faf877a159c3bb0c9ff4e083446694d511364cb3038a39080",
  "args": [
    "0xC02aaA39b223FE8D0A0e5C4F27eAD9083C756Cc2"
  ],
  "solcInputHash": "e71fe9108d9fe3f59100a0cb35628d62",
  "bytecode": "0x60a06040523480156200001157600080fd5b5060405162002b9938038062002b9983398101604081905262000034916200004a565b60601b6001600160601b0319166080526200007a565b6000602082840312156200005c578081fd5b81516001600160a01b038116811462000073578182fd5b9392505050565b60805160601c612ab4620000e560003960008181607e01528181610184015281816102c501528181610307015281816106410152818161076601528181610b5801528181610c3c01528181611de701528181611ec401528181611ff401526120cb0152612ab46000f3fe60806040526004361061006e5760003560e01c8062f4e9a014610102578063207e88f7146101425780633fc8cef31461017257806359f842b2146101b35780636587e4ce146101f7578063c729465a14610217578063fb9f47891461022a578063fbec41a81461024a57600080fd5b366100fd57336001600160a01b037f000000000000000000000000000000000000000000000000000000000000000016146100fb5760405162461bcd60e51b815260206004820152602260248201527f6f6e6c792072656365697665204554482066726f6d2057455448206164647265604482015261737360f01b60648201526084015b60405180910390fd5b005b600080fd5b34801561010e57600080fd5b5061012261011d36600461259c565b61025d565b604080519384526020840192909252908201526060015b60405180910390f35b34801561014e57600080fd5b5061016261015d3660046124d7565b6102c1565b6040519015158152602001610139565b34801561017e57600080fd5b506101a67f000000000000000000000000000000000000000000000000000000000000000081565b60405161013991906127fc565b3480156101bf57600080fd5b506101d36101ce366004612547565b610393565b6040805193845260208401929092526001600160801b031690820152606001610139565b34801561020357600080fd5b506101d3610212366004612547565b61046a565b61012261022536600461259c565b61082e565b34801561023657600080fd5b50610122610245366004612660565b610892565b610122610258366004612660565b610a37565b60008060006102718d8d8d8d8d8d8d610d11565b919450925090508583108015906102885750848210155b6102a45760405162461bcd60e51b81526004016100f29061288c565b6102b18d84848488610def565b9a509a509a975050505050505050565b60007f00000000000000000000000000000000000000000000000000000000000000006001600160a01b0316836001600160a01b031614156103055750600161038d565b7f00000000000000000000000000000000000000000000000000000000000000006001600160a01b0316826001600160a01b031614156103475750600061038d565b60405162461bcd60e51b815260206004820152601b60248201527a0dedcca40e0deded840e8ded6cadc40daeae6e840c4ca40ae8aa89602b1b60448201526064016100f2565b92915050565b600080806103ac6001600160a01b03891633308a610fa9565b604051633f34d4cf60e21b81526001600160a01b0389169063fcd3533c906103da908a90889060040161292c565b606060405180830381600087803b1580156103f457600080fd5b505af1158015610408573d6000803e3d6000fd5b505050506040513d601f19601f8201168201806040525081019061042c91906126d5565b919450925090508583108015906104435750848210155b61045f5760405162461bcd60e51b81526004016100f29061285c565b955095509592505050565b600080600080610555896001600160a01b0316630dfe16816040518163ffffffff1660e01b815260040160206040518083038186803b1580156104ac57600080fd5b505afa1580156104c0573d6000803e3d6000fd5b505050506040513d601f19601f820116820180604052508101906104e4919061252b565b8a6001600160a01b031663d21220a76040518163ffffffff1660e01b815260040160206040518083038186803b15801561051d57600080fd5b505afa158015610531573d6000803e3d6000fd5b505050506040513d601f19601f8201168201806040525081019061015d919061252b565b905061056c6001600160a01b038a1633308b610fa9565b604051633f34d4cf60e21b81526001600160a01b038a169063fcd3533c9061059a908b90309060040161292c565b606060405180830381600087803b1580156105b457600080fd5b505af11580156105c8573d6000803e3d6000fd5b505050506040513d601f19601f820116820180604052508101906105ec91906126d5565b919550935091508684108015906106035750858310155b61061f5760405162461bcd60e51b81526004016100f29061285c565b801561074a5783156106b957604051632e1a7d4d60e01b8152600481018590527f00000000000000000000000000000000000000000000000000000000000000006001600160a01b031690632e1a7d4d90602401600060405180830381600087803b15801561068d57600080fd5b505af11580156106a1573d6000803e3d6000fd5b506106b9925050506001600160a01b0386168561101a565b82156107455761074585848b6001600160a01b031663d21220a76040518163ffffffff1660e01b815260040160206040518083038186803b1580156106fd57600080fd5b505afa158015610711573d6000803e3d6000fd5b505050506040513d601f19601f82011682018060405250810190610735919061252b565b6001600160a01b03169190611135565b610822565b82156107de57604051632e1a7d4d60e01b8152600481018490527f00000000000000000000000000000000000000000000000000000000000000006001600160a01b031690632e1a7d4d90602401600060405180830381600087803b1580156107b257600080fd5b505af11580156107c6573d6000803e3d6000fd5b506107de925050506001600160a01b0386168461101a565b83156108225761082285858b6001600160a01b0316630dfe16816040518163ffffffff1660e01b815260040160206040518083038186803b1580156106fd57600080fd5b50955095509592505050565b60008060006108428d8d8d8d8d8d8d611154565b919450925090508583108015906108595750848210155b6108755760405162461bcd60e51b81526004016100f29061288c565b6108828d84848488610def565b47156102b1576102b1334761101a565b604051634c4a790d60e11b81526004810186905260248101859052600090819081906001600160a01b038a1690639894f21a9060440160606040518083038186803b1580156108e057600080fd5b505afa1580156108f4573d6000803e3d6000fd5b505050506040513d601f19601f820116820180604052508101906109189190612719565b9194509250905085831080159061092f5750848210155b61094b5760405162461bcd60e51b81526004016100f29061288c565b82156109d9576109d93330858c6001600160a01b0316630dfe16816040518163ffffffff1660e01b815260040160206040518083038186803b15801561099057600080fd5b505afa1580156109a4573d6000803e3d6000fd5b505050506040513d601f19601f820116820180604052508101906109c8919061252b565b6001600160a01b0316929190610fa9565b8115610a1e57610a1e3330848c6001600160a01b031663d21220a76040518163ffffffff1660e01b815260040160206040518083038186803b15801561099057600080fd5b610a2b8984848488610def565b96509650969350505050565b604051634c4a790d60e11b81526004810186905260248101859052600090819081906001600160a01b038a1690639894f21a9060440160606040518083038186803b158015610a8557600080fd5b505afa158015610a99573d6000803e3d6000fd5b505050506040513d601f19601f82011682018060405250810190610abd9190612719565b91945092509050858310801590610ad45750848210155b610af05760405162461bcd60e51b81526004016100f29061288c565b610b2c896001600160a01b0316630dfe16816040518163ffffffff1660e01b815260040160206040518083038186803b1580156104ac57600080fd5b15610c1557348814610b505760405162461bcd60e51b81526004016100f2906128b7565b8215610bcb577f00000000000000000000000000000000000000000000000000000000000000006001600160a01b031663d0e30db0846040518263ffffffff1660e01b81526004016000604051808303818588803b158015610bb157600080fd5b505af1158015610bc5573d6000803e3d6000fd5b50505050505b8115610c1057610c103330848c6001600160a01b031663d21220a76040518163ffffffff1660e01b815260040160206040518083038186803b15801561099057600080fd5b610cf4565b348714610c345760405162461bcd60e51b81526004016100f2906128b7565b8115610caf577f00000000000000000000000000000000000000000000000000000000000000006001600160a01b031663d0e30db0836040518263ffffffff1660e01b81526004016000604051808303818588803b158015610c9557600080fd5b505af1158015610ca9573d6000803e3d6000fd5b50505050505b8215610cf457610cf43330858c6001600160a01b0316630dfe16816040518163ffffffff1660e01b815260040160206040518083038186803b15801561099057600080fd5b610d018984848488610def565b4715610a2b57610a2b334761101a565b60008060008515610d6c57610d5b3330898d6001600160a01b0316630dfe16816040518163ffffffff1660e01b815260040160206040518083038186803b15801561099057600080fd5b610d65878a6129ae565b9850610db8565b610dab3330898d6001600160a01b031663d21220a76040518163ffffffff1660e01b815260040160206040518083038186803b15801561099057600080fd5b610db587896129ae565b97505b600080610dc98c60008a8a8a61134a565b91509150610dda8c8c8c85856119c2565b919e909d50909b509950505050505050505050565b8315610e7b57610e7b8585876001600160a01b0316630dfe16816040518163ffffffff1660e01b815260040160206040518083038186803b158015610e3357600080fd5b505afa158015610e47573d6000803e3d6000fd5b505050506040513d601f19601f82011682018060405250810190610e6b919061252b565b6001600160a01b03169190611bac565b8215610ebf57610ebf8584876001600160a01b031663d21220a76040518163ffffffff1660e01b815260040160206040518083038186803b158015610e3357600080fd5b600080866001600160a01b03166394bf804d85856040518363ffffffff1660e01b8152600401610ef092919061292c565b606060405180830381600087803b158015610f0a57600080fd5b505af1158015610f1e573d6000803e3d6000fd5b505050506040513d601f19601f82011682018060405250810190610f4291906126d5565b50915091508186148015610f5557508085145b610fa05760405162461bcd60e51b815260206004820152601c60248201527b1d5b995e1c1958dd195908185b5bdd5b9d1cc819195c1bdcda5d195960221b60448201526064016100f2565b50505050505050565b6040516001600160a01b03808516602483015283166044820152606481018290526110149085906323b872dd60e01b906084015b60408051601f198184030181529190526020810180516001600160e01b03166001600160e01b031990931692909217909152611c5b565b50505050565b8047101561106a5760405162461bcd60e51b815260206004820152601d60248201527f416464726573733a20696e73756666696369656e742062616c616e636500000060448201526064016100f2565b6000826001600160a01b03168260405160006040518083038185875af1925050503d80600081146110b7576040519150601f19603f3d011682016040523d82523d6000602084013e6110bc565b606091505b50509050806111305760405162461bcd60e51b815260206004820152603a60248201527f416464726573733a20756e61626c6520746f2073656e642076616c75652c20726044820152791958da5c1a595b9d081b585e481a185d99481c995d995c9d195960321b60648201526084016100f2565b505050565b6111308363a9059cbb60e01b8484604051602401610fdd929190612810565b6000806000806112078b6001600160a01b0316630dfe16816040518163ffffffff1660e01b815260040160206040518083038186803b15801561119657600080fd5b505afa1580156111aa573d6000803e3d6000fd5b505050506040513d601f19601f820116820180604052508101906111ce919061252b565b8c6001600160a01b031663d21220a76040518163ffffffff1660e01b815260040160206040518083038186803b15801561051d57600080fd5b9050861561128957801561123957348a146112345760405162461bcd60e51b81526004016100f2906128b7565b611278565b61127833308a8e6001600160a01b0316630dfe16816040518163ffffffff1660e01b815260040160206040518083038186803b15801561099057600080fd5b611282888b6129ae565b99506112ff565b80156112d3576112ce33308a8e6001600160a01b031663d21220a76040518163ffffffff1660e01b815260040160206040518083038186803b15801561099057600080fd5b6112f2565b3489146112f25760405162461bcd60e51b81526004016100f2906128b7565b6112fc888a6129ae565b98505b6000806113228d8a15158515151461131857600061131a565b8b5b8b8b8b61134a565b915091506113348d8d8d858588611d2d565b919f909e50909c509a5050505050505050505050565b60008082518451146113af5760405162461bcd60e51b815260206004820152602860248201527f7377617020616374696f6e73206c656e67746820213d207377617020646174616044820152670e640d8cadccee8d60c31b60648201526084016100f2565b6000856114a757876001600160a01b0316630dfe16816040518163ffffffff1660e01b815260040160206040518083038186803b1580156113ef57600080fd5b505afa158015611403573d6000803e3d6000fd5b505050506040513d601f19601f82011682018060405250810190611427919061252b565b6001600160a01b03166370a08231306040518263ffffffff1660e01b815260040161145291906127fc565b60206040518083038186803b15801561146a57600080fd5b505afa15801561147e573d6000803e3d6000fd5b505050506040513d601f19601f820116820180604052508101906114a291906126bd565b611593565b876001600160a01b031663d21220a76040518163ffffffff1660e01b815260040160206040518083038186803b1580156114e057600080fd5b505afa1580156114f4573d6000803e3d6000fd5b505050506040513d601f19601f82011682018060405250810190611518919061252b565b6001600160a01b03166370a08231306040518263ffffffff1660e01b815260040161154391906127fc565b60206040518083038186803b15801561155b57600080fd5b505afa15801561156f573d6000803e3d6000fd5b505050506040513d601f19601f8201168201806040525081019061159391906126bd565b90506000871180156115a6575084516001145b1561169257600080866000815181106115cf57634e487b7160e01b600052603260045260246000fd5b60200260200101516001600160a01b0316898760008151811061160257634e487b7160e01b600052603260045260246000fd5b60200260200101516040516116179190612746565b60006040518083038185875af1925050503d8060008114611654576040519150601f19603f3d011682016040523d82523d6000602084013e611659565b606091505b50915091508161168b5761168b8160405180604001604052806006815260200165039bbb0b81d160d51b815250612156565b5050611792565b60005b8551811015611790576000808783815181106116c157634e487b7160e01b600052603260045260246000fd5b60200260200101516001600160a01b03168784815181106116f257634e487b7160e01b600052603260045260246000fd5b60200260200101516040516117079190612746565b6000604051808303816000865af19150503d8060008114611744576040519150601f19603f3d011682016040523d82523d6000602084013e611749565b606091505b50915091508161177b5761177b8160405180604001604052806006815260200165039bbb0b81d160d51b815250612156565b50508080611788906129f1565b915050611695565b505b876001600160a01b0316630dfe16816040518163ffffffff1660e01b815260040160206040518083038186803b1580156117cb57600080fd5b505afa1580156117df573d6000803e3d6000fd5b505050506040513d601f19601f82011682018060405250810190611803919061252b565b6001600160a01b03166370a08231306040518263ffffffff1660e01b815260040161182e91906127fc565b60206040518083038186803b15801561184657600080fd5b505afa15801561185a573d6000803e3d6000fd5b505050506040513d601f19601f8201168201806040525081019061187e91906126bd565b9250876001600160a01b031663d21220a76040518163ffffffff1660e01b815260040160206040518083038186803b1580156118b957600080fd5b505afa1580156118cd573d6000803e3d6000fd5b505050506040513d601f19601f820116820180604052508101906118f1919061252b565b6001600160a01b03166370a08231306040518263ffffffff1660e01b815260040161191c91906127fc565b60206040518083038186803b15801561193457600080fd5b505afa158015611948573d6000803e3d6000fd5b505050506040513d601f19601f8201168201806040525081019061196c91906126bd565b91508515611998578082116119935760405162461bcd60e51b81526004016100f2906128fa565b6119b7565b8083116119b75760405162461bcd60e51b81526004016100f2906128fa565b509550959350505050565b600080806001600160a01b038816639894f21a6119df878a612996565b6119e9878a612996565b6040516001600160e01b031960e085901b1681526004810192909252602482015260440160606040518083038186803b158015611a2557600080fd5b505afa158015611a39573d6000803e3d6000fd5b505050506040513d601f19601f82011682018060405250810190611a5d9190612719565b9194509250905082851115611ab857611ab333611a7a85886129ae565b8a6001600160a01b0316630dfe16816040518163ffffffff1660e01b815260040160206040518083038186803b1580156106fd57600080fd5b611b08565b82851015611b0857611b083330611acf88876129ae565b8b6001600160a01b0316630dfe16816040518163ffffffff1660e01b815260040160206040518083038186803b15801561099057600080fd5b81841115611b5c57611b5733611b1e84876129ae565b8a6001600160a01b031663d21220a76040518163ffffffff1660e01b815260040160206040518083038186803b1580156106fd57600080fd5b61045f565b8184101561045f5761045f3330611b7387866129ae565b8b6001600160a01b031663d21220a76040518163ffffffff1660e01b815260040160206040518083038186803b15801561099057600080fd5b604051636eb1769f60e11b81523060048201526001600160a01b038381166024830152600091839186169063dd62ed3e9060440160206040518083038186803b158015611bf857600080fd5b505afa158015611c0c573d6000803e3d6000fd5b505050506040513d601f19601f82011682018060405250810190611c3091906126bd565b611c3a9190612996565b90506110148463095ea7b360e01b8584604051602401610fdd929190612810565b6000611cb0826040518060400160405280602081526020017f5361666545524332303a206c6f772d6c6576656c2063616c6c206661696c6564815250856001600160a01b03166121ea9092919063ffffffff16565b8051909150156111305780806020019051810190611cce919061250f565b6111305760405162461bcd60e51b815260206004820152602a60248201527f5361666545524332303a204552433230206f7065726174696f6e20646964206e6044820152691bdd081cdd58d8d9595960b21b60648201526084016100f2565b600080806001600160a01b038916639894f21a611d4a888b612996565b611d54888b612996565b6040516001600160e01b031960e085901b1681526004810192909252602482015260440160606040518083038186803b158015611d9057600080fd5b505afa158015611da4573d6000803e3d6000fd5b505050506040513d601f19601f82011682018060405250810190611dc89190612719565b9194509250905085831115611eac578315611e5f576001600160a01b037f00000000000000000000000000000000000000000000000000000000000000001663d0e30db0611e1688866129ae565b6040518263ffffffff1660e01b81526004016000604051808303818588803b158015611e4157600080fd5b505af1158015611e55573d6000803e3d6000fd5b5050505050611f8f565b611ea73330611e6e89876129ae565b8c6001600160a01b0316630dfe16816040518163ffffffff1660e01b815260040160206040518083038186803b15801561099057600080fd5b611f8f565b82861115611f8f578315611f48576001600160a01b037f000000000000000000000000000000000000000000000000000000000000000016632e1a7d4d611ef385896129ae565b6040518263ffffffff1660e01b8152600401611f1191815260200190565b600060405180830381600087803b158015611f2b57600080fd5b505af1158015611f3f573d6000803e3d6000fd5b50505050611f8f565b611f8f33611f5685896129ae565b8b6001600160a01b0316630dfe16816040518163ffffffff1660e01b815260040160206040518083038186803b1580156106fd57600080fd5b8482111561206c578315611fea57611fe53330611fac88866129ae565b8c6001600160a01b031663d21220a76040518163ffffffff1660e01b815260040160206040518083038186803b15801561099057600080fd5b610a2b565b6001600160a01b037f00000000000000000000000000000000000000000000000000000000000000001663d0e30db061202387856129ae565b6040518263ffffffff1660e01b81526004016000604051808303818588803b15801561204e57600080fd5b505af1158015612062573d6000803e3d6000fd5b5050505050610a2b565b81851115610a2b5783156120c157611fe53361208884886129ae565b8b6001600160a01b031663d21220a76040518163ffffffff1660e01b815260040160206040518083038186803b1580156106fd57600080fd5b6001600160a01b037f000000000000000000000000000000000000000000000000000000000000000016632e1a7d4d6120fa84886129ae565b6040518263ffffffff1660e01b815260040161211891815260200190565b600060405180830381600087803b15801561213257600080fd5b505af1158015612146573d6000803e3d6000fd5b5050505096509650969350505050565b602082516121649190612a0c565b600414156121d957602082015162461bcd60e51b6001600160e01b0319821614156121c85760448301925081836040516020016121a2929190612762565b60408051601f198184030181529082905262461bcd60e51b82526100f291600401612829565b816040516020016121a29190612791565b806040516020016121a291906127c4565b60606121f98484600085612203565b90505b9392505050565b6060824710156122645760405162461bcd60e51b815260206004820152602660248201527f416464726573733a20696e73756666696369656e742062616c616e636520666f6044820152651c8818d85b1b60d21b60648201526084016100f2565b843b6122b25760405162461bcd60e51b815260206004820152601d60248201527f416464726573733a2063616c6c20746f206e6f6e2d636f6e747261637400000060448201526064016100f2565b600080866001600160a01b031685876040516122ce9190612746565b60006040518083038185875af1925050503d806000811461230b576040519150601f19603f3d011682016040523d82523d6000602084013e612310565b606091505b509150915061232082828661232b565b979650505050505050565b6060831561233a5750816121fc565b82511561234a5782518084602001fd5b8160405162461bcd60e51b81526004016100f29190612829565b803561236f81612a58565b919050565b600082601f830112612384578081fd5b8135602061239961239483612973565b612943565b80838252828201915082860187848660051b89010111156123b8578586fd5b855b858110156123df5781356123cd81612a58565b845292840192908401906001016123ba565b5090979650505050505050565b6000601f83818401126123fd578182fd5b8235602061240d61239483612973565b80838252828201915082870188848660051b8a0101111561242c578687fd5b865b858110156124be5781356001600160401b038082111561244c57898afd5b818b0191508b603f83011261245f57898afd5b8682013560408282111561247557612475612a42565b612486828c01601f19168a01612943565b92508183528d8183860101111561249b578b8cfd5b818185018a85013750810187018a9052855250928401929084019060010161242e565b509098975050505050505050565b803561236f81612a70565b600080604083850312156124e9578182fd5b82356124f481612a58565b9150602083013561250481612a58565b809150509250929050565b600060208284031215612520578081fd5b81516121fc81612a70565b60006020828403121561253c578081fd5b81516121fc81612a58565b600080600080600060a0868803121561255e578081fd5b853561256981612a58565b9450602086013593506040860135925060608601359150608086013561258e81612a58565b809150509295509295909350565b6000806000806000806000806000806101408b8d0312156125bb578485fd5b6125c48b612364565b995060208b0135985060408b0135975060608b013596506125e760808c016124cc565b955060a08b01356001600160401b0380821115612602578687fd5b61260e8e838f01612374565b965060c08d0135915080821115612623578586fd5b506126308d828e016123ec565b94505060e08b013592506101008b0135915061264f6101208c01612364565b90509295989b9194979a5092959850565b60008060008060008060c08789031215612678578384fd5b863561268381612a58565b95506020870135945060408701359350606087013592506080870135915060a08701356126af81612a58565b809150509295509295509295565b6000602082840312156126ce578081fd5b5051919050565b6000806000606084860312156126e9578081fd5b83516020850151604086015191945092506001600160801b038116811461270e578182fd5b809150509250925092565b60008060006060848603121561272d578081fd5b8351925060208401519150604084015190509250925092565b600082516127588184602087016129c5565b9190910192915050565b600083516127748184602088016129c5565b8351908301906127888183602088016129c5565b01949350505050565b600082516127a38184602087016129c5565b6e2737a2b93937b929b2b632b1ba37b960891b920191825250600f01919050565b600082516127d68184602087016129c5565b73556e657870656374656452657475726e6461746160601b920191825250601401919050565b6001600160a01b0391909116815260200190565b6001600160a01b03929092168252602082015260400190565b60208152600082518060208401526128488160408501602087016129c5565b601f01601f19169190910160400192915050565b60208082526016908201527572656365697665642062656c6f77206d696e696d756d60501b604082015260600190565b60208082526011908201527062656c6f77206d696e20616d6f756e747360781b604082015260600190565b60208082526023908201527f6d69736d61746368696e6720616d6f756e74206f662045544820666f7277617260408201526219195960ea1b606082015260800190565b60208082526018908201527739bbb0b8103337b91034b731b7b93932b1ba103a37b5b2b760411b604082015260600190565b9182526001600160a01b0316602082015260400190565b604051601f8201601f191681016001600160401b038111828210171561296b5761296b612a42565b604052919050565b60006001600160401b0382111561298c5761298c612a42565b5060051b60200190565b600082198211156129a9576129a9612a2c565b500190565b6000828210156129c0576129c0612a2c565b500390565b60005b838110156129e05781810151838201526020016129c8565b838111156110145750506000910152565b6000600019821415612a0557612a05612a2c565b5060010190565b600082612a2757634e487b7160e01b81526012600452602481fd5b500690565b634e487b7160e01b600052601160045260246000fd5b634e487b7160e01b600052604160045260246000fd5b6001600160a01b0381168114612a6d57600080fd5b50565b8015158114612a6d57600080fdfea264697066735822122086d8c12bfd6e3b54eea9825c1d2dba526222e286be2a755e8b67b0623d2b40a264736f6c63430008040033",
  "devdoc": {
    "kind": "dev",
    "methods": {
      "addLiquidity(address,uint256,uint256,uint256,uint256,address)": {
        "params": {
          "_amount0Max": "the maximum amount of token0 msg.sender willing to input",
          "_amount0Min": "the minimum amount of token0 actually input (slippage protection)",
          "_amount1Max": "the maximum amount of token1 msg.sender willing to input",
          "_amount1Min": "the minimum amount of token1 actually input (slippage protection)",
          "_pool": "address of G-UNI pool to add liquidity to",
          "_receiver": "account to receive minted G-UNI tokens"
        },
        "returns": {
          "amount0": "amount of token0 transferred from msg.sender to mint `mintAmount`",
          "amount1": "amount of token1 transferred from msg.sender to mint `mintAmount`",
          "mintAmount": "amount of G-UNI tokens minted and transferred to `receiver`"
        }
      },
      "rebalanceAndAddLiquidity(address,uint256,uint256,uint256,bool,address[],bytes[],uint256,uint256,address)": {
        "details": "note on swaps: MUST swap to/from token0 from/to token1 as specified by zeroForOne will revert on \"overshot\" swap (receive more outToken from swap than can be deposited) swapping for erroneous tokens will not necessarily revert in all cases and could result in loss of funds so be careful with swapActions and swapDatas params.",
        "params": {
          "_amount0In": "the amount of token0 msg.sender forwards to router",
          "_amount0Min": "the minimum amount of token0 actually deposited (slippage protection)",
          "_amount1In": "the amount of token1 msg.sender forwards to router",
          "_amount1Min": "the minimum amount of token1 actually deposited (slippage protection)",
          "_amountSwap": "amount to input into swap",
          "_pool": "address of G-UNI pool to add liquidity to",
          "_receiver": "account to receive minted G-UNI tokens",
          "_swapActions": "addresses for swap calls",
          "_swapDatas": "payloads for swap calls",
          "_zeroForOne": "directionality of swap"
        },
        "returns": {
          "amount0": "amount of token0 actually deposited into pool",
          "amount1": "amount of token1 actually deposited into pool",
          "mintAmount": "amount of G-UNI tokens minted and transferred to `receiver`"
        }
      },
      "rebalanceAndAddLiquidityETH(address,uint256,uint256,uint256,bool,address[],bytes[],uint256,uint256,address)": {
        "details": "note on swaps: MUST swap either ETH -> token or token->WETH swaps which try to execute token -> ETH instead of WETH will revert"
      },
      "removeLiquidity(address,uint256,uint256,uint256,address)": {
        "params": {
          "_amount0Min": "Minimum amount of token0 received after burn (slippage protection)",
          "_amount1Min": "Minimum amount of token1 received after burn (slippage protection)",
          "_burnAmount": "The number of G-UNI tokens to burn",
          "_pool": "address of G-UNI pool to remove liquidity from",
          "_receiver": "The account to receive the underlying amounts of token0 and token1"
        },
        "returns": {
          "amount0": "actual amount of token0 transferred to receiver for burning `burnAmount`",
          "amount1": "actual amount of token1 transferred to receiver for burning `burnAmount`",
          "liquidityBurned": "amount of liquidity removed from the underlying Uniswap V3 position"
        }
      }
    },
    "version": 1
  },
  "userdoc": {
    "kind": "user",
    "methods": {
      "addLiquidity(address,uint256,uint256,uint256,uint256,address)": {
        "notice": "addLiquidity adds liquidity to G-UNI pool of interest (mints G-UNI LP tokens)"
      },
      "addLiquidityETH(address,uint256,uint256,uint256,uint256,address)": {
        "notice": "addLiquidityETH same as addLiquidity but expects ETH transfers (instead of WETH)"
      },
      "rebalanceAndAddLiquidity(address,uint256,uint256,uint256,bool,address[],bytes[],uint256,uint256,address)": {
        "notice": "rebalanceAndAddLiquidity accomplishes same task as addLiquidity/addLiquidityETH but we rebalance msg.sender's holdings (perform a swap) before adding liquidity."
      },
      "rebalanceAndAddLiquidityETH(address,uint256,uint256,uint256,bool,address[],bytes[],uint256,uint256,address)": {
        "notice": "rebalanceAndAddLiquidityETH same as rebalanceAndAddLiquidity except this function expects ETH transfer (instead of WETH)"
      },
      "removeLiquidity(address,uint256,uint256,uint256,address)": {
        "notice": "removeLiquidity removes liquidity from a G-UNI pool and burns G-UNI LP tokens"
      },
      "removeLiquidityETH(address,uint256,uint256,uint256,address)": {
        "notice": "removeLiquidityETH same as removeLiquidity except this function unwraps WETH and sends ETH to receiver account"
      }
    },
    "version": 1
  },
  "storageLayout": {
    "storage": [],
    "types": null
  }
}