{
  "address": "0x8CA6fa325bc32f86a12cC4964Edf1f71655007A7",
  "abi": [
    {
      "inputs": [
        {
          "internalType": "contract IUniswapV3Factory",
          "name": "_factory",
          "type": "address"
        },
        {
          "internalType": "contract IWETH",
          "name": "_weth",
          "type": "address"
        }
      ],
      "stateMutability": "nonpayable",
      "type": "constructor"
    },
    {
      "inputs": [
        {
          "internalType": "contract IGUniPool",
          "name": "pool",
          "type": "address"
        },
        {
          "internalType": "uint256",
          "name": "amount0Max",
          "type": "uint256"
        },
        {
          "internalType": "uint256",
          "name": "amount1Max",
          "type": "uint256"
        },
        {
          "internalType": "uint256",
          "name": "amount0Min",
          "type": "uint256"
        },
        {
          "internalType": "uint256",
          "name": "amount1Min",
          "type": "uint256"
        },
        {
          "internalType": "address",
          "name": "receiver",
          "type": "address"
        }
      ],
      "name": "addLiquidity",
      "outputs": [
        {
          "internalType": "uint256",
          "name": "amount0",
          "type": "uint256"
        },
        {
          "internalType": "uint256",
          "name": "amount1",
          "type": "uint256"
        },
        {
          "internalType": "uint256",
          "name": "mintAmount",
          "type": "uint256"
        }
      ],
      "stateMutability": "nonpayable",
      "type": "function"
    },
    {
      "inputs": [
        {
          "internalType": "contract IGUniPool",
          "name": "pool",
          "type": "address"
        },
        {
          "internalType": "uint256",
          "name": "amount0Max",
          "type": "uint256"
        },
        {
          "internalType": "uint256",
          "name": "amount1Max",
          "type": "uint256"
        },
        {
          "internalType": "uint256",
          "name": "amount0Min",
          "type": "uint256"
        },
        {
          "internalType": "uint256",
          "name": "amount1Min",
          "type": "uint256"
        },
        {
          "internalType": "address",
          "name": "receiver",
          "type": "address"
        }
      ],
      "name": "addLiquidityETH",
      "outputs": [
        {
          "internalType": "uint256",
          "name": "amount0",
          "type": "uint256"
        },
        {
          "internalType": "uint256",
          "name": "amount1",
          "type": "uint256"
        },
        {
          "internalType": "uint256",
          "name": "mintAmount",
          "type": "uint256"
        }
      ],
      "stateMutability": "payable",
      "type": "function"
    },
    {
      "inputs": [],
      "name": "factory",
      "outputs": [
        {
          "internalType": "contract IUniswapV3Factory",
          "name": "",
          "type": "address"
        }
      ],
      "stateMutability": "view",
      "type": "function"
    },
    {
      "inputs": [
        {
          "internalType": "contract IGUniPool",
          "name": "pool",
          "type": "address"
        }
      ],
      "name": "getPoolUnderlyingBalances",
      "outputs": [
        {
          "internalType": "uint256",
          "name": "amount0",
          "type": "uint256"
        },
        {
          "internalType": "uint256",
          "name": "amount1",
          "type": "uint256"
        }
      ],
      "stateMutability": "view",
      "type": "function"
    },
    {
      "inputs": [
        {
          "internalType": "contract IGUniPool",
          "name": "pool",
          "type": "address"
        },
        {
          "internalType": "address",
          "name": "account",
          "type": "address"
        },
        {
          "internalType": "uint256",
          "name": "balance",
          "type": "uint256"
        }
      ],
      "name": "getUnderlyingBalances",
      "outputs": [
        {
          "internalType": "uint256",
          "name": "amount0",
          "type": "uint256"
        },
        {
          "internalType": "uint256",
          "name": "amount1",
          "type": "uint256"
        }
      ],
      "stateMutability": "view",
      "type": "function"
    },
    {
      "inputs": [
        {
          "internalType": "address",
          "name": "token0",
          "type": "address"
        },
        {
          "internalType": "address",
          "name": "token1",
          "type": "address"
        }
      ],
      "name": "isToken0Weth",
      "outputs": [
        {
          "internalType": "bool",
          "name": "wethToken0",
          "type": "bool"
        }
      ],
      "stateMutability": "view",
      "type": "function"
    },
    {
      "inputs": [
        {
          "internalType": "contract IGUniPool",
          "name": "pool",
          "type": "address"
        },
        {
          "internalType": "uint256",
          "name": "amount0In",
          "type": "uint256"
        },
        {
          "internalType": "uint256",
          "name": "amount1In",
          "type": "uint256"
        },
        {
          "internalType": "bool",
          "name": "zeroForOne",
          "type": "bool"
        },
        {
          "internalType": "uint256",
          "name": "swapAmount",
          "type": "uint256"
        },
        {
          "internalType": "uint160",
          "name": "swapThreshold",
          "type": "uint160"
        },
        {
          "internalType": "uint256",
          "name": "amount0Min",
          "type": "uint256"
        },
        {
          "internalType": "uint256",
          "name": "amount1Min",
          "type": "uint256"
        },
        {
          "internalType": "address",
          "name": "receiver",
          "type": "address"
        }
      ],
      "name": "rebalanceAndAddLiquidity",
      "outputs": [
        {
          "internalType": "uint256",
          "name": "amount0",
          "type": "uint256"
        },
        {
          "internalType": "uint256",
          "name": "amount1",
          "type": "uint256"
        },
        {
          "internalType": "uint256",
          "name": "mintAmount",
          "type": "uint256"
        }
      ],
      "stateMutability": "nonpayable",
      "type": "function"
    },
    {
      "inputs": [
        {
          "internalType": "contract IGUniPool",
          "name": "pool",
          "type": "address"
        },
        {
          "internalType": "uint256",
          "name": "amount0In",
          "type": "uint256"
        },
        {
          "internalType": "uint256",
          "name": "amount1In",
          "type": "uint256"
        },
        {
          "internalType": "bool",
          "name": "zeroForOne",
          "type": "bool"
        },
        {
          "internalType": "uint256",
          "name": "swapAmount",
          "type": "uint256"
        },
        {
          "internalType": "uint160",
          "name": "swapThreshold",
          "type": "uint160"
        },
        {
          "internalType": "uint256",
          "name": "amount0Min",
          "type": "uint256"
        },
        {
          "internalType": "uint256",
          "name": "amount1Min",
          "type": "uint256"
        },
        {
          "internalType": "address",
          "name": "receiver",
          "type": "address"
        }
      ],
      "name": "rebalanceAndAddLiquidityETH",
      "outputs": [
        {
          "internalType": "uint256",
          "name": "amount0",
          "type": "uint256"
        },
        {
          "internalType": "uint256",
          "name": "amount1",
          "type": "uint256"
        },
        {
          "internalType": "uint256",
          "name": "mintAmount",
          "type": "uint256"
        }
      ],
      "stateMutability": "payable",
      "type": "function"
    },
    {
      "inputs": [
        {
          "internalType": "contract IGUniPool",
          "name": "pool",
          "type": "address"
        },
        {
          "internalType": "uint256",
          "name": "burnAmount",
          "type": "uint256"
        },
        {
          "internalType": "uint256",
          "name": "amount0Min",
          "type": "uint256"
        },
        {
          "internalType": "uint256",
          "name": "amount1Min",
          "type": "uint256"
        },
        {
          "internalType": "address",
          "name": "receiver",
          "type": "address"
        }
      ],
      "name": "removeLiquidity",
      "outputs": [
        {
          "internalType": "uint256",
          "name": "amount0",
          "type": "uint256"
        },
        {
          "internalType": "uint256",
          "name": "amount1",
          "type": "uint256"
        },
        {
          "internalType": "uint128",
          "name": "liquidityBurned",
          "type": "uint128"
        }
      ],
      "stateMutability": "nonpayable",
      "type": "function"
    },
    {
      "inputs": [
        {
          "internalType": "contract IGUniPool",
          "name": "pool",
          "type": "address"
        },
        {
          "internalType": "uint256",
          "name": "burnAmount",
          "type": "uint256"
        },
        {
          "internalType": "uint256",
          "name": "amount0Min",
          "type": "uint256"
        },
        {
          "internalType": "uint256",
          "name": "amount1Min",
          "type": "uint256"
        },
        {
          "internalType": "address payable",
          "name": "receiver",
          "type": "address"
        }
      ],
      "name": "removeLiquidityETH",
      "outputs": [
        {
          "internalType": "uint256",
          "name": "amount0",
          "type": "uint256"
        },
        {
          "internalType": "uint256",
          "name": "amount1",
          "type": "uint256"
        },
        {
          "internalType": "uint128",
          "name": "liquidityBurned",
          "type": "uint128"
        }
      ],
      "stateMutability": "nonpayable",
      "type": "function"
    },
    {
      "inputs": [
        {
          "internalType": "int256",
          "name": "amount0Delta",
          "type": "int256"
        },
        {
          "internalType": "int256",
          "name": "amount1Delta",
          "type": "int256"
        },
        {
          "internalType": "bytes",
          "name": "",
          "type": "bytes"
        }
      ],
      "name": "uniswapV3SwapCallback",
      "outputs": [],
      "stateMutability": "nonpayable",
      "type": "function"
    },
    {
      "inputs": [],
      "name": "weth",
      "outputs": [
        {
          "internalType": "contract IWETH",
          "name": "",
          "type": "address"
        }
      ],
      "stateMutability": "view",
      "type": "function"
    },
    {
      "stateMutability": "payable",
      "type": "receive"
    }
  ],
  "transactionHash": "0xabbb80c5d664ffca8e3b011c9409b09230bfd18ce6b2de497cce0b81bb426f48",
  "args": [
    "0x1F98431c8aD98523631AE4a59f267346ea31F984",
    "0xC02aaA39b223FE8D0A0e5C4F27eAD9083C756Cc2"
  ],
  "solcInputHash": "89b871217c03aa70f9a1f0ffa15d48d6",
  "bytecode": "0x60c06040523480156200001157600080fd5b506040516200358c3803806200358c833981016040819052620000349162000054565b6001600160601b0319606091821b811660805291901b1660a052620000ab565b6000806040838503121562000067578182fd5b8251620000748162000092565b6020840151909250620000878162000092565b809150509250929050565b6001600160a01b0381168114620000a857600080fd5b50565b60805160601c60a05160601c61346862000124600039600081816101fc0152610fb8015260008181610129015281816102aa015281816102ec01528181610699015281816107be01528181610bc101528181610c6401528181611414015281816114f8015281816121e5015261230c01526134686000f3fe60806040526004361061009b5760003560e01c8063207e88f7146100a757806333f9ab55146100dc5780633fc8cef31461011757806359f842b2146101585780636587e4ce1461019c578063c0c108e8146101bc578063c45a0155146101ea578063dcdf72021461021e578063efb31b1214610231578063fa461e3314610251578063fb9f478914610273578063fbec41a81461029357600080fd5b366100a257005b600080fd5b3480156100b357600080fd5b506100c76100c2366004612d70565b6102a6565b60405190151581526020015b60405180910390f35b3480156100e857600080fd5b506100fc6100f7366004612e38565b61037d565b604080519384526020840192909252908201526060016100d3565b34801561012357600080fd5b5061014b7f000000000000000000000000000000000000000000000000000000000000000081565b6040516100d391906131b8565b34801561016457600080fd5b50610178610173366004612ec6565b6103eb565b6040805193845260208401929092526001600160801b0316908201526060016100d3565b3480156101a857600080fd5b506101786101b7366004612ec6565b6104c2565b3480156101c857600080fd5b506101dc6101d7366004612ddc565b610886565b6040516100d39291906132cd565b3480156101f657600080fd5b5061014b7f000000000000000000000000000000000000000000000000000000000000000081565b6100fc61022c366004612e38565b610b49565b34801561023d57600080fd5b506101dc61024c366004612df8565b610ce8565b34801561025d57600080fd5b5061027161026c366004612fb5565b610e21565b005b34801561027f57600080fd5b506100fc61028e366004612f1b565b6110d4565b6100fc6102a1366004612f1b565b611282565b60007f00000000000000000000000000000000000000000000000000000000000000006001600160a01b0316836001600160a01b031614156102ea57506001610377565b7f00000000000000000000000000000000000000000000000000000000000000006001600160a01b0316826001600160a01b0316141561032c57506000610377565b60405162461bcd60e51b815260206004820152601b60248201527a0dedcca40e0deded840e8ded6cadc40daeae6e840c4ca40ae8aa89602b1b60448201526064015b60405180910390fd5b92915050565b6000806000806000806103948f8f8f8f8f8f61164f565b9250925092508883101580156103aa5750878210155b6103c65760405162461bcd60e51b815260040161036e90613248565b6103d38f8484848b6118e8565b95509550955050505099509950999650505050505050565b600080806104046001600160a01b03891633308a611aa9565b604051633f34d4cf60e21b81526001600160a01b0389169063fcd3533c90610432908a9088906004016132b6565b606060405180830381600087803b15801561044c57600080fd5b505af1158015610460573d6000803e3d6000fd5b505050506040513d601f19601f82011682018060405250810190610484919061313b565b9194509250905085831080159061049b5750848210155b6104b75760405162461bcd60e51b815260040161036e90613218565b955095509592505050565b6000806000806105ad896001600160a01b0316630dfe16816040518163ffffffff1660e01b815260040160206040518083038186803b15801561050457600080fd5b505afa158015610518573d6000803e3d6000fd5b505050506040513d601f19601f8201168201806040525081019061053c9190612d54565b8a6001600160a01b031663d21220a76040518163ffffffff1660e01b815260040160206040518083038186803b15801561057557600080fd5b505afa158015610589573d6000803e3d6000fd5b505050506040513d601f19601f820116820180604052508101906100c29190612d54565b90506105c46001600160a01b038a1633308b611aa9565b604051633f34d4cf60e21b81526001600160a01b038a169063fcd3533c906105f2908b9030906004016132b6565b606060405180830381600087803b15801561060c57600080fd5b505af1158015610620573d6000803e3d6000fd5b505050506040513d601f19601f82011682018060405250810190610644919061313b565b9195509350915086841080159061065b5750858310155b6106775760405162461bcd60e51b815260040161036e90613218565b80156107a257831561071157604051632e1a7d4d60e01b8152600481018590527f00000000000000000000000000000000000000000000000000000000000000006001600160a01b031690632e1a7d4d90602401600060405180830381600087803b1580156106e557600080fd5b505af11580156106f9573d6000803e3d6000fd5b50610711925050506001600160a01b03861685611b1a565b821561079d5761079d85848b6001600160a01b031663d21220a76040518163ffffffff1660e01b815260040160206040518083038186803b15801561075557600080fd5b505afa158015610769573d6000803e3d6000fd5b505050506040513d601f19601f8201168201806040525081019061078d9190612d54565b6001600160a01b03169190611c35565b61087a565b821561083657604051632e1a7d4d60e01b8152600481018490527f00000000000000000000000000000000000000000000000000000000000000006001600160a01b031690632e1a7d4d90602401600060405180830381600087803b15801561080a57600080fd5b505af115801561081e573d6000803e3d6000fd5b50610836925050506001600160a01b03861684611b1a565b831561087a5761087a85858b6001600160a01b0316630dfe16816040518163ffffffff1660e01b815260040160206040518083038186803b15801561075557600080fd5b50955095509592505050565b6000806000836001600160a01b03166316f0115b6040518163ffffffff1660e01b815260040160206040518083038186803b1580156108c457600080fd5b505afa1580156108d8573d6000803e3d6000fd5b505050506040513d601f19601f820116820180604052508101906108fc9190612d54565b90506000816001600160a01b031663514ea4bf866001600160a01b031663df28408a6040518163ffffffff1660e01b815260040160206040518083038186803b15801561094857600080fd5b505afa15801561095c573d6000803e3d6000fd5b505050506040513d601f19601f820116820180604052508101906109809190612dc4565b6040518263ffffffff1660e01b815260040161099e91815260200190565b60a06040518083038186803b1580156109b657600080fd5b505afa1580156109ca573d6000803e3d6000fd5b505050506040513d601f19601f820116820180604052508101906109ee919061302f565b5050505090506000826001600160a01b0316633850c7bd6040518163ffffffff1660e01b815260040160e06040518083038186803b158015610a2f57600080fd5b505afa158015610a43573d6000803e3d6000fd5b505050506040513d601f19601f82011682018060405250810190610a679190613085565b50505050505090506000610aed876001600160a01b0316639b1344ac6040518163ffffffff1660e01b815260040160206040518083038186803b158015610aad57600080fd5b505afa158015610ac1573d6000803e3d6000fd5b505050506040513d601f19601f82011682018060405250810190610ae59190612f78565b60020b611c54565b90506000610b2d886001600160a01b031663727dd2286040518163ffffffff1660e01b815260040160206040518083038186803b158015610aad57600080fd5b9050610b3b83838387612066565b965096505050505050915091565b600080600080600080610b608f8f8f8f8f8f612103565b925092509250888310158015610b765750878210155b610b925760405162461bcd60e51b815260040161036e90613248565b610b9f8f8484848b6118e8565b6040516370a0823160e01b815292985090965094506000906001600160a01b037f000000000000000000000000000000000000000000000000000000000000000016906370a0823190610bf69030906004016131b8565b60206040518083038186803b158015610c0e57600080fd5b505afa158015610c22573d6000803e3d6000fd5b505050506040513d601f19601f82011682018060405250810190610c469190612dc4565b90508015610cd557604051632e1a7d4d60e01b8152600481018290527f00000000000000000000000000000000000000000000000000000000000000006001600160a01b031690632e1a7d4d90602401600060405180830381600087803b158015610cb057600080fd5b505af1158015610cc4573d6000803e3d6000fd5b50610cd59250339150839050611b1a565b5050505099509950999650505050505050565b600080600080610cf787610886565b9150915084600014610d095784610d85565b6040516370a0823160e01b81526001600160a01b038816906370a0823190610d359089906004016131b8565b60206040518083038186803b158015610d4d57600080fd5b505afa158015610d61573d6000803e3d6000fd5b505050506040513d601f19601f82011682018060405250810190610d859190612dc4565b94506000876001600160a01b03166318160ddd6040518163ffffffff1660e01b815260040160206040518083038186803b158015610dc257600080fd5b505afa158015610dd6573d6000803e3d6000fd5b505050506040513d601f19601f82011682018060405250810190610dfa9190612dc4565b9050610e0783878361258c565b9450610e1482878361258c565b9350505050935093915050565b60003390506000816001600160a01b0316630dfe16816040518163ffffffff1660e01b815260040160206040518083038186803b158015610e6157600080fd5b505afa158015610e75573d6000803e3d6000fd5b505050506040513d601f19601f82011682018060405250810190610e999190612d54565b90506000826001600160a01b031663d21220a76040518163ffffffff1660e01b815260040160206040518083038186803b158015610ed657600080fd5b505afa158015610eea573d6000803e3d6000fd5b505050506040513d601f19601f82011682018060405250810190610f0e9190612d54565b90506000836001600160a01b031663ddca3f436040518163ffffffff1660e01b815260040160206040518083038186803b158015610f4b57600080fd5b505afa158015610f5f573d6000803e3d6000fd5b505050506040513d601f19601f82011682018060405250810190610f839190613118565b604051630b4c774160e11b81526001600160a01b038581166004830152848116602483015262ffffff831660448301529192507f000000000000000000000000000000000000000000000000000000000000000090911690631698ee829060640160206040518083038186803b158015610ffc57600080fd5b505afa158015611010573d6000803e3d6000fd5b505050506040513d601f19601f820116820180604052508101906110349190612d54565b6001600160a01b0316336001600160a01b03161461108b5760405162461bcd60e51b81526020600482015260146024820152731a5b9d985b1a59081d5b9a5cddd85c081c1bdbdb60621b604482015260640161036e565b60008813156110ad576110a86001600160a01b038416338a611c35565b6110ca565b60008713156110ca576110ca6001600160a01b0383163389611c35565b5050505050505050565b6000806000806000808b6001600160a01b0316639894f21a8c8c6040518363ffffffff1660e01b815260040161110b9291906132cd565b60606040518083038186803b15801561112357600080fd5b505afa158015611137573d6000803e3d6000fd5b505050506040513d601f19601f8201168201806040525081019061115b919061316f565b9250925092508883101580156111715750878210155b61118d5760405162461bcd60e51b815260040161036e90613248565b821561121b5761121b3330858f6001600160a01b0316630dfe16816040518163ffffffff1660e01b815260040160206040518083038186803b1580156111d257600080fd5b505afa1580156111e6573d6000803e3d6000fd5b505050506040513d601f19601f8201168201806040525081019061120a9190612d54565b6001600160a01b0316929190611aa9565b8115611260576112603330848f6001600160a01b031663d21220a76040518163ffffffff1660e01b815260040160206040518083038186803b1580156111d257600080fd5b61126d8c8484848b6118e8565b95509550955050505096509650969350505050565b6000806000806000808b6001600160a01b0316639894f21a8c8c6040518363ffffffff1660e01b81526004016112b99291906132cd565b60606040518083038186803b1580156112d157600080fd5b505afa1580156112e5573d6000803e3d6000fd5b505050506040513d601f19601f82011682018060405250810190611309919061316f565b92509250925088831015801561131f5750878210155b61133b5760405162461bcd60e51b815260040161036e90613248565b6113e88c6001600160a01b0316630dfe16816040518163ffffffff1660e01b815260040160206040518083038186803b15801561137757600080fd5b505afa15801561138b573d6000803e3d6000fd5b505050506040513d601f19601f820116820180604052508101906113af9190612d54565b8d6001600160a01b031663d21220a76040518163ffffffff1660e01b815260040160206040518083038186803b15801561057557600080fd5b156114d157348b1461140c5760405162461bcd60e51b815260040161036e90613273565b8215611487577f00000000000000000000000000000000000000000000000000000000000000006001600160a01b031663d0e30db0846040518263ffffffff1660e01b81526004016000604051808303818588803b15801561146d57600080fd5b505af1158015611481573d6000803e3d6000fd5b50505050505b81156114cc576114cc3330848f6001600160a01b031663d21220a76040518163ffffffff1660e01b815260040160206040518083038186803b1580156111d257600080fd5b6115b0565b348a146114f05760405162461bcd60e51b815260040161036e90613273565b811561156b577f00000000000000000000000000000000000000000000000000000000000000006001600160a01b031663d0e30db0836040518263ffffffff1660e01b81526004016000604051808303818588803b15801561155157600080fd5b505af1158015611565573d6000803e3d6000fd5b50505050505b82156115b0576115b03330858f6001600160a01b0316630dfe16816040518163ffffffff1660e01b815260040160206040518083038186803b1580156111d257600080fd5b6115bd8c8484848b6118e8565b8096508197508298505050506116058c6001600160a01b0316630dfe16816040518163ffffffff1660e01b815260040160206040518083038186803b15801561137757600080fd5b1561162b57828b11156116265761162661161f848d61334e565b3390611b1a565b611640565b818a11156116405761164061161f838c61334e565b50505096509650969350505050565b6000808087156116985761169833308a8c6001600160a01b0316630dfe16816040518163ffffffff1660e01b815260040160206040518083038186803b1580156111d257600080fd5b86156116dd576116dd3330898c6001600160a01b031663d21220a76040518163ffffffff1660e01b815260040160206040518083038186803b1580156111d257600080fd5b6116e989878787612641565b6000896001600160a01b0316630dfe16816040518163ffffffff1660e01b815260040160206040518083038186803b15801561172457600080fd5b505afa158015611738573d6000803e3d6000fd5b505050506040513d601f19601f8201168201806040525081019061175c9190612d54565b6001600160a01b03166370a08231306040518263ffffffff1660e01b815260040161178791906131b8565b60206040518083038186803b15801561179f57600080fd5b505afa1580156117b3573d6000803e3d6000fd5b505050506040513d601f19601f820116820180604052508101906117d79190612dc4565b905060008a6001600160a01b031663d21220a76040518163ffffffff1660e01b815260040160206040518083038186803b15801561181457600080fd5b505afa158015611828573d6000803e3d6000fd5b505050506040513d601f19601f8201168201806040525081019061184c9190612d54565b6001600160a01b03166370a08231306040518263ffffffff1660e01b815260040161187791906131b8565b60206040518083038186803b15801561188f57600080fd5b505afa1580156118a3573d6000803e3d6000fd5b505050506040513d601f19601f820116820180604052508101906118c79190612dc4565b90506118d48b8383612759565b919d909c50909a5098505050505050505050565b6000808086156119785761197888888a6001600160a01b0316630dfe16816040518163ffffffff1660e01b815260040160206040518083038186803b15801561193057600080fd5b505afa158015611944573d6000803e3d6000fd5b505050506040513d601f19601f820116820180604052508101906119689190612d54565b6001600160a01b0316919061288a565b85156119bc576119bc88878a6001600160a01b031663d21220a76040518163ffffffff1660e01b815260040160206040518083038186803b15801561193057600080fd5b6040516394bf804d60e01b81526001600160a01b038916906394bf804d906119ea90889088906004016132b6565b606060405180830381600087803b158015611a0457600080fd5b505af1158015611a18573d6000803e3d6000fd5b505050506040513d601f19601f82011682018060405250810190611a3c919061313b565b5090935091508683148015611a5057508582145b611a9b5760405162461bcd60e51b815260206004820152601c60248201527b1d5b995e1c1958dd195908185b5bdd5b9d1cc819195c1bdcda5d195960221b604482015260640161036e565b849050955095509592505050565b6040516001600160a01b0380851660248301528316604482015260648101829052611b149085906323b872dd60e01b906084015b60408051601f198184030181529190526020810180516001600160e01b03166001600160e01b031990931692909217909152612939565b50505050565b80471015611b6a5760405162461bcd60e51b815260206004820152601d60248201527f416464726573733a20696e73756666696369656e742062616c616e6365000000604482015260640161036e565b6000826001600160a01b03168260405160006040518083038185875af1925050503d8060008114611bb7576040519150601f19603f3d011682016040523d82523d6000602084013e611bbc565b606091505b5050905080611c305760405162461bcd60e51b815260206004820152603a60248201527f416464726573733a20756e61626c6520746f2073656e642076616c75652c20726044820152791958da5c1a595b9d081b585e481a185d99481c995d995c9d195960321b606482015260840161036e565b505050565b611c308363a9059cbb60e01b8484604051602401611add9291906131cc565b60008060008360020b12611c6b578260020b611c78565b8260020b611c78906133c6565b9050611c87620d89e7196133a5565b60020b811115611cbd5760405162461bcd60e51b81526020600482015260016024820152601560fa1b604482015260640161036e565b600060018216611cd157600160801b611ce3565b6ffffcb933bd6fad37aa2d162d1a5940015b6001600160881b031690506002821615611d18576080611d13826ffff97272373d413259a46990580e213a613307565b901c90505b6004821615611d42576080611d3d826ffff2e50f5f656932ef12357cf3c7fdcc613307565b901c90505b6008821615611d6c576080611d67826fffe5caca7e10e4e61c3624eaa0941cd0613307565b901c90505b6010821615611d96576080611d91826fffcb9843d60f6159c9db58835c926644613307565b901c90505b6020821615611dc0576080611dbb826fff973b41fa98c081472e6896dfb254c0613307565b901c90505b6040821615611dea576080611de5826fff2ea16466c96a3843ec78b326b52861613307565b901c90505b6080821615611e14576080611e0f826ffe5dee046a99a2a811c461f1969c3053613307565b901c90505b610100821615611e3f576080611e3a826ffcbe86c7900a88aedcffc83b479aa3a4613307565b901c90505b610200821615611e6a576080611e65826ff987a7253ac413176f2b074cf7815e54613307565b901c90505b610400821615611e95576080611e90826ff3392b0822b70005940c7a398e4b70f3613307565b901c90505b610800821615611ec0576080611ebb826fe7159475a2c29b7443b29c7fa6e889d9613307565b901c90505b611000821615611eeb576080611ee6826fd097f3bdfd2022b8845ad8f792aa5825613307565b901c90505b612000821615611f16576080611f11826fa9f746462d870fdf8a65dc1f90e061e5613307565b901c90505b614000821615611f41576080611f3c826f70d869a156d2a1b890bb3df62baf32f7613307565b901c90505b618000821615611f6c576080611f67826f31be135f97d08fd981231505542fcfa6613307565b901c90505b62010000821615611f98576080611f93826f09aa508b5b7a84e1c677de54f3e99bc9613307565b901c90505b62020000821615611fc3576080611fbe826e5d6af8dedb81196699c329225ee604613307565b901c90505b62040000821615611fed576080611fe8826d2216e584f5fa1ea926041bedfe98613307565b901c90505b62080000821615612015576080612010826b048a170391f7dc42444e8fa2613307565b901c90505b60008460020b13156120305761202d816000196132f3565b90505b61203e600160201b82613391565b1561204a57600161204d565b60005b61205e9060ff16602083901c6132db565b949350505050565b600080836001600160a01b0316856001600160a01b03161115612087579293925b846001600160a01b0316866001600160a01b031610156120b3576120ac858585612a0b565b91506120fa565b836001600160a01b0316866001600160a01b031610156120ec576120d8868585612a0b565b91506120e5858785612a75565b90506120fa565b6120f7858585612a75565b90505b94509492505050565b6000806000806121b68a6001600160a01b0316630dfe16816040518163ffffffff1660e01b815260040160206040518083038186803b15801561214557600080fd5b505afa158015612159573d6000803e3d6000fd5b505050506040513d601f19601f8201168201806040525081019061217d9190612d54565b8b6001600160a01b031663d21220a76040518163ffffffff1660e01b815260040160206040518083038186803b15801561057557600080fd5b9050881561229b57801561225c573489146121e35760405162461bcd60e51b815260040161036e90613273565b7f00000000000000000000000000000000000000000000000000000000000000006001600160a01b031663d0e30db08a6040518263ffffffff1660e01b81526004016000604051808303818588803b15801561223e57600080fd5b505af1158015612252573d6000803e3d6000fd5b505050505061229b565b61229b33308b8d6001600160a01b0316630dfe16816040518163ffffffff1660e01b815260040160206040518083038186803b1580156111d257600080fd5b871561237f5780156122eb576122e633308a8d6001600160a01b031663d21220a76040518163ffffffff1660e01b815260040160206040518083038186803b1580156111d257600080fd5b61237f565b34881461230a5760405162461bcd60e51b815260040161036e90613273565b7f00000000000000000000000000000000000000000000000000000000000000006001600160a01b031663d0e30db0896040518263ffffffff1660e01b81526004016000604051808303818588803b15801561236557600080fd5b505af1158015612379573d6000803e3d6000fd5b50505050505b61238b8a888888612641565b60008a6001600160a01b0316630dfe16816040518163ffffffff1660e01b815260040160206040518083038186803b1580156123c657600080fd5b505afa1580156123da573d6000803e3d6000fd5b505050506040513d601f19601f820116820180604052508101906123fe9190612d54565b6001600160a01b03166370a08231306040518263ffffffff1660e01b815260040161242991906131b8565b60206040518083038186803b15801561244157600080fd5b505afa158015612455573d6000803e3d6000fd5b505050506040513d601f19601f820116820180604052508101906124799190612dc4565b905060008b6001600160a01b031663d21220a76040518163ffffffff1660e01b815260040160206040518083038186803b1580156124b657600080fd5b505afa1580156124ca573d6000803e3d6000fd5b505050506040513d601f19601f820116820180604052508101906124ee9190612d54565b6001600160a01b03166370a08231306040518263ffffffff1660e01b815260040161251991906131b8565b60206040518083038186803b15801561253157600080fd5b505afa158015612545573d6000803e3d6000fd5b505050506040513d601f19601f820116820180604052508101906125699190612dc4565b90506125778c838386612abf565b919e909d50909b509950505050505050505050565b6000808060001985870985870292508281108382030391505080600014156125c657600084116125bb57600080fd5b50829004905061263a565b8084116125d257600080fd5b600084868809851960019081018716968790049682860381900495909211909303600082900391909104909201919091029190911760038402600290811880860282030280860282030280860282030280860282030280860282030280860290910302029150505b9392505050565b836001600160a01b03166316f0115b6040518163ffffffff1660e01b815260040160206040518083038186803b15801561267a57600080fd5b505afa15801561268e573d6000803e3d6000fd5b505050506040513d601f19601f820116820180604052508101906126b29190612d54565b604051630251596160e31b81523060048201528415156024820152604481018490526001600160a01b03838116606483015260a06084830152600060a4830152919091169063128acb089060c4016040805180830381600087803b15801561271957600080fd5b505af115801561272d573d6000803e3d6000fd5b505050506040513d601f19601f820116820180604052508101906127519190612f92565b505050505050565b6000806000856001600160a01b0316639894f21a86866040518363ffffffff1660e01b815260040161278c9291906132cd565b60606040518083038186803b1580156127a457600080fd5b505afa1580156127b8573d6000803e3d6000fd5b505050506040513d601f19601f820116820180604052508101906127dc919061316f565b919450925090508285111561283257612832336127f9858861334e565b886001600160a01b0316630dfe16816040518163ffffffff1660e01b815260040160206040518083038186803b15801561075557600080fd5b818411156128815761288133612848848761334e565b886001600160a01b031663d21220a76040518163ffffffff1660e01b815260040160206040518083038186803b15801561075557600080fd5b93509350939050565b604051636eb1769f60e11b81523060048201526001600160a01b038381166024830152600091839186169063dd62ed3e9060440160206040518083038186803b1580156128d657600080fd5b505afa1580156128ea573d6000803e3d6000fd5b505050506040513d601f19601f8201168201806040525081019061290e9190612dc4565b61291891906132db565b9050611b148463095ea7b360e01b8584604051602401611add9291906131cc565b600061298e826040518060400160405280602081526020017f5361666545524332303a206c6f772d6c6576656c2063616c6c206661696c6564815250856001600160a01b0316612c099092919063ffffffff16565b805190915015611c3057808060200190518101906129ac9190612da8565b611c305760405162461bcd60e51b815260206004820152602a60248201527f5361666545524332303a204552433230206f7065726174696f6e20646964206e6044820152691bdd081cdd58d8d9595960b21b606482015260840161036e565b6000826001600160a01b0316846001600160a01b03161115612a2b579192915b6001600160a01b038416612a6b600160601b600160e01b03606085901b16612a538787613326565b6001600160a01b0316866001600160a01b031661258c565b61205e91906132f3565b6000826001600160a01b0316846001600160a01b03161115612a95579192915b61205e6001600160801b038316612aac8686613326565b6001600160a01b0316600160601b61258c565b6000806000866001600160a01b0316639894f21a87876040518363ffffffff1660e01b8152600401612af29291906132cd565b60606040518083038186803b158015612b0a57600080fd5b505afa158015612b1e573d6000803e3d6000fd5b505050506040513d601f19601f82011682018060405250810190612b42919061316f565b919450925090508286118015612b56575083155b15612ba757612ba233612b69858961334e565b896001600160a01b0316630dfe16816040518163ffffffff1660e01b815260040160206040518083038186803b15801561075557600080fd5b612bff565b8185118015612bb35750835b15612bff57612bff33612bc6848861334e565b896001600160a01b031663d21220a76040518163ffffffff1660e01b815260040160206040518083038186803b15801561075557600080fd5b9450945094915050565b606061205e848460008585843b612c625760405162461bcd60e51b815260206004820152601d60248201527f416464726573733a2063616c6c20746f206e6f6e2d636f6e7472616374000000604482015260640161036e565b600080866001600160a01b03168587604051612c7e919061319c565b60006040518083038185875af1925050503d8060008114612cbb576040519150601f19603f3d011682016040523d82523d6000602084013e612cc0565b606091505b5091509150612cd0828286612cdb565b979650505050505050565b60608315612cea57508161263a565b825115612cfa5782518084602001fd5b8160405162461bcd60e51b815260040161036e91906131e5565b8051600281900b8114612d2657600080fd5b919050565b80516001600160801b0381168114612d2657600080fd5b805161ffff81168114612d2657600080fd5b600060208284031215612d65578081fd5b815161263a8161340c565b60008060408385031215612d82578081fd5b8235612d8d8161340c565b91506020830135612d9d8161340c565b809150509250929050565b600060208284031215612db9578081fd5b815161263a81613424565b600060208284031215612dd5578081fd5b5051919050565b600060208284031215612ded578081fd5b813561263a8161340c565b600080600060608486031215612e0c578081fd5b8335612e178161340c565b92506020840135612e278161340c565b929592945050506040919091013590565b60008060008060008060008060006101208a8c031215612e56578485fd5b8935612e618161340c565b985060208a0135975060408a0135965060608a0135612e7f81613424565b955060808a0135945060a08a0135612e968161340c565b935060c08a0135925060e08a013591506101008a0135612eb58161340c565b809150509295985092959850929598565b600080600080600060a08688031215612edd578283fd5b8535612ee88161340c565b94506020860135935060408601359250606086013591506080860135612f0d8161340c565b809150509295509295909350565b60008060008060008060c08789031215612f33578384fd5b8635612f3e8161340c565b95506020870135945060408701359350606087013592506080870135915060a0870135612f6a8161340c565b809150509295509295509295565b600060208284031215612f89578081fd5b61263a82612d14565b60008060408385031215612fa4578182fd5b505080516020909101519092909150565b60008060008060608587031215612fca578182fd5b843593506020850135925060408501356001600160401b0380821115612fee578384fd5b818701915087601f830112613001578384fd5b81358181111561300f578485fd5b886020828501011115613020578485fd5b95989497505060200194505050565b600080600080600060a08688031215613046578283fd5b61304f86612d2b565b9450602086015193506040860151925061306b60608701612d2b565b915061307960808701612d2b565b90509295509295909350565b600080600080600080600060e0888a03121561309f578081fd5b87516130aa8161340c565b96506130b860208901612d14565b95506130c660408901612d42565b94506130d460608901612d42565b93506130e260808901612d42565b925060a088015160ff811681146130f7578182fd5b60c089015190925061310881613424565b8091505092959891949750929550565b600060208284031215613129578081fd5b815162ffffff8116811461263a578182fd5b60008060006060848603121561314f578081fd5b835192506020840151915061316660408501612d2b565b90509250925092565b600080600060608486031215613183578081fd5b8351925060208401519150604084015190509250925092565b600082516131ae818460208701613365565b9190910192915050565b6001600160a01b0391909116815260200190565b6001600160a01b03929092168252602082015260400190565b6020815260008251806020840152613204816040850160208701613365565b601f01601f19169190910160400192915050565b60208082526016908201527572656365697665642062656c6f77206d696e696d756d60501b604082015260600190565b60208082526011908201527062656c6f77206d696e20616d6f756e747360781b604082015260600190565b60208082526023908201527f6d69736d61746368696e6720616d6f756e74206f662045544820666f7277617260408201526219195960ea1b606082015260800190565b9182526001600160a01b0316602082015260400190565b918252602082015260400190565b600082198211156132ee576132ee6133e0565b500190565b600082613302576133026133f6565b500490565b6000816000190483118215151615613321576133216133e0565b500290565b60006001600160a01b0383811690831681811015613346576133466133e0565b039392505050565b600082821015613360576133606133e0565b500390565b60005b83811015613380578181015183820152602001613368565b83811115611b145750506000910152565b6000826133a0576133a06133f6565b500690565b60008160020b627fffff198114156133bf576133bf6133e0565b9003919050565b6000600160ff1b8214156133dc576133dc6133e0565b0390565b634e487b7160e01b600052601160045260246000fd5b634e487b7160e01b600052601260045260246000fd5b6001600160a01b038116811461342157600080fd5b50565b801515811461342157600080fdfea264697066735822122089742a1a54400a9f6eadc02ceea482a6895b85ffd739c8890062df553c92d72764736f6c63430008040033",
  "devdoc": {
    "kind": "dev",
    "methods": {},
    "version": 1
  },
  "userdoc": {
    "kind": "user",
    "methods": {},
    "version": 1
  },
  "storageLayout": {
    "storage": [],
    "types": null
  }
}