{
  "address": "0x0317650Af6f184344D7368AC8bB0bEbA5EDB214a",
  "abi": [
    {
      "inputs": [
        {
          "internalType": "contract IGUniPool",
          "name": "pool",
          "type": "address"
        },
        {
          "internalType": "uint256",
          "name": "amount0In",
          "type": "uint256"
        },
        {
          "internalType": "uint256",
          "name": "amount1In",
          "type": "uint256"
        },
        {
          "internalType": "uint256",
          "name": "price18Decimals",
          "type": "uint256"
        }
      ],
      "name": "getRebalanceParams",
      "outputs": [
        {
          "internalType": "bool",
          "name": "zeroForOne",
          "type": "bool"
        },
        {
          "internalType": "uint256",
          "name": "swapAmount",
          "type": "uint256"
        }
      ],
      "stateMutability": "view",
      "type": "function"
    }
  ],
  "transactionHash": "0x9d41f83be59cbe96fe3aa2f109dad2946661d5cbbbb101568017fb35272067e2",
  "args": [],
  "solcInputHash": "e71fe9108d9fe3f59100a0cb35628d62",
  "bytecode": "0x608060405234801561001057600080fd5b5061107f806100206000396000f3fe608060405234801561001057600080fd5b506004361061002b5760003560e01c8063444b4bf614610030575b600080fd5b61004361003e366004610ccc565b61005e565b60408051921515835260208301919091520160405180910390f35b604051634c4a790d60e11b815260048101849052602481018390526000908190819081906001600160a01b03891690639894f21a9060440160606040518083038186803b1580156100ae57600080fd5b505afa9250505080156100de575060408051601f3d908101601f191682019092526100db91810190610dd2565b60015b6100ec575085905084610108565b6100f6838b610f7c565b9450610102828a610f7c565b93505050505b6000806101148a6103ff565b9150915080600014156101315760008395509550505050506103f6565b816101465760018495509550505050506103f6565b60008a6001600160a01b0316630dfe16816040518163ffffffff1660e01b815260040160206040518083038186803b15801561018157600080fd5b505afa158015610195573d6000803e3d6000fd5b505050506040513d601f19601f820116820180604052508101906101b99190610cb0565b6001600160a01b031663313ce5676040518163ffffffff1660e01b815260040160206040518083038186803b1580156101f157600080fd5b505afa158015610205573d6000803e3d6000fd5b505050506040513d601f19601f820116820180604052508101906102299190610dff565b610234906012610f93565b61023f90600a610e88565b905060008b6001600160a01b031663d21220a76040518163ffffffff1660e01b815260040160206040518083038186803b15801561027c57600080fd5b505afa158015610290573d6000803e3d6000fd5b505050506040513d601f19601f820116820180604052508101906102b49190610cb0565b6001600160a01b031663313ce5676040518163ffffffff1660e01b815260040160206040518083038186803b1580156102ec57600080fd5b505afa158015610300573d6000803e3d6000fd5b505050506040513d601f19601f820116820180604052508101906103249190610dff565b61032f906012610f93565b61033a90600a610e88565b9050600061036361034b8487610f35565b670de0b6b3a764000061035e8588610f35565b61065b565b9050600061037a828c670de0b6b3a764000061065b565b9050600061039582670de0b6b3a764000061035e8282610e19565b9050878911156103ce5760019a506103c7896103b983670de0b6b3a7640000610f7c565b670de0b6b3a764000061065b565b99506103ec565b888811156103ec576103e98882670de0b6b3a764000061065b565b99505b5050505050505050505b94509492505050565b600080826001600160a01b0316631322d9546040518163ffffffff1660e01b8152600401604080518083038186803b15801561043a57600080fd5b505afa15801561044e573d6000803e3d6000fd5b505050506040513d601f19601f820116820180604052508101906104729190610daf565b909250905081158015610483575080155b15610656576000836001600160a01b03166316f0115b6040518163ffffffff1660e01b815260040160206040518083038186803b1580156104c357600080fd5b505afa1580156104d7573d6000803e3d6000fd5b505050506040513d601f19601f820116820180604052508101906104fb9190610cb0565b90506000816001600160a01b0316633850c7bd6040518163ffffffff1660e01b815260040160e06040518083038186803b15801561053857600080fd5b505afa15801561054c573d6000803e3d6000fd5b505050506040513d601f19601f820116820180604052508101906105709190610d20565b505050505050905060006105f6866001600160a01b0316639b1344ac6040518163ffffffff1660e01b815260040160206040518083038186803b1580156105b657600080fd5b505afa1580156105ca573d6000803e3d6000fd5b505050506040513d601f19601f820116820180604052508101906105ee9190610d06565b60020b610710565b90506000610636876001600160a01b031663727dd2286040518163ffffffff1660e01b815260040160206040518083038186803b1580156105b657600080fd5b905061064c838383670de0b6b3a7640000610b26565b9096509450505050505b915091565b600080806000198587098587029250828110838203039150508060001415610695576000841161068a57600080fd5b508290049050610709565b8084116106a157600080fd5b600084868809851960019081018716968790049682860381900495909211909303600082900391909104909201919091029190911760038402600290811880860282030280860282030280860282030280860282030280860282030280860290910302029150505b9392505050565b60008060008360020b12610727578260020b610734565b8260020b61073490610feb565b9050610743620d89e719610fca565b60020b81111561077d5760405162461bcd60e51b81526020600482015260016024820152601560fa1b604482015260640160405180910390fd5b60006001821661079157600160801b6107a3565b6ffffcb933bd6fad37aa2d162d1a5940015b6001600160881b0316905060028216156107d85760806107d3826ffff97272373d413259a46990580e213a610f35565b901c90505b60048216156108025760806107fd826ffff2e50f5f656932ef12357cf3c7fdcc610f35565b901c90505b600882161561082c576080610827826fffe5caca7e10e4e61c3624eaa0941cd0610f35565b901c90505b6010821615610856576080610851826fffcb9843d60f6159c9db58835c926644610f35565b901c90505b602082161561088057608061087b826fff973b41fa98c081472e6896dfb254c0610f35565b901c90505b60408216156108aa5760806108a5826fff2ea16466c96a3843ec78b326b52861610f35565b901c90505b60808216156108d45760806108cf826ffe5dee046a99a2a811c461f1969c3053610f35565b901c90505b6101008216156108ff5760806108fa826ffcbe86c7900a88aedcffc83b479aa3a4610f35565b901c90505b61020082161561092a576080610925826ff987a7253ac413176f2b074cf7815e54610f35565b901c90505b610400821615610955576080610950826ff3392b0822b70005940c7a398e4b70f3610f35565b901c90505b61080082161561098057608061097b826fe7159475a2c29b7443b29c7fa6e889d9610f35565b901c90505b6110008216156109ab5760806109a6826fd097f3bdfd2022b8845ad8f792aa5825610f35565b901c90505b6120008216156109d65760806109d1826fa9f746462d870fdf8a65dc1f90e061e5610f35565b901c90505b614000821615610a015760806109fc826f70d869a156d2a1b890bb3df62baf32f7610f35565b901c90505b618000821615610a2c576080610a27826f31be135f97d08fd981231505542fcfa6610f35565b901c90505b62010000821615610a58576080610a53826f09aa508b5b7a84e1c677de54f3e99bc9610f35565b901c90505b62020000821615610a83576080610a7e826e5d6af8dedb81196699c329225ee604610f35565b901c90505b62040000821615610aad576080610aa8826d2216e584f5fa1ea926041bedfe98610f35565b901c90505b62080000821615610ad5576080610ad0826b048a170391f7dc42444e8fa2610f35565b901c90505b60008460020b1315610af057610aed81600019610e31565b90505b610afe600160201b82610fb6565b15610b0a576001610b0d565b60005b610b1e9060ff16602083901c610e19565b949350505050565b600080836001600160a01b0316856001600160a01b03161115610b47579293925b846001600160a01b0316866001600160a01b03161015610b7357610b6c858585610bc2565b91506103f6565b836001600160a01b0316866001600160a01b03161015610bac57610b98868585610bc2565b9150610ba5858785610c2c565b90506103f6565b610bb7858585610c2c565b905094509492505050565b6000826001600160a01b0316846001600160a01b03161115610be2579192915b6001600160a01b038416610c22600160601b600160e01b03606085901b16610c0a8787610f54565b6001600160a01b0316866001600160a01b031661065b565b610b1e9190610e31565b6000826001600160a01b0316846001600160a01b03161115610c4c579192915b610b1e6001600160801b038316610c638686610f54565b6001600160a01b0316600160601b61065b565b8051600281900b8114610c8857600080fd5b919050565b805161ffff81168114610c8857600080fd5b805160ff81168114610c8857600080fd5b600060208284031215610cc1578081fd5b815161070981611031565b60008060008060808587031215610ce1578283fd5b8435610cec81611031565b966020860135965060408601359560600135945092505050565b600060208284031215610d17578081fd5b61070982610c76565b600080600080600080600060e0888a031215610d3a578283fd5b8751610d4581611031565b9650610d5360208901610c76565b9550610d6160408901610c8d565b9450610d6f60608901610c8d565b9350610d7d60808901610c8d565b9250610d8b60a08901610c9f565b915060c08801518015158114610d9f578182fd5b8091505092959891949750929550565b60008060408385031215610dc1578182fd5b505080516020909101519092909150565b600080600060608486031215610de6578283fd5b8351925060208401519150604084015190509250925092565b600060208284031215610e10578081fd5b61070982610c9f565b60008219821115610e2c57610e2c611005565b500190565b600082610e4057610e4061101b565b500490565b600181815b80851115610e80578160001904821115610e6657610e66611005565b80851615610e7357918102915b93841c9390800290610e4a565b509250929050565b600061070960ff841683600082610ea157506001610f2f565b81610eae57506000610f2f565b8160018114610ec45760028114610ece57610eea565b6001915050610f2f565b60ff841115610edf57610edf611005565b50506001821b610f2f565b5060208310610133831016604e8410600b8410161715610f0d575081810a610f2f565b610f178383610e45565b8060001904821115610f2b57610f2b611005565b0290505b92915050565b6000816000190483118215151615610f4f57610f4f611005565b500290565b60006001600160a01b0383811690831681811015610f7457610f74611005565b039392505050565b600082821015610f8e57610f8e611005565b500390565b600060ff821660ff841680821015610fad57610fad611005565b90039392505050565b600082610fc557610fc561101b565b500690565b60008160020b627fffff19811415610fe457610fe4611005565b9003919050565b6000600160ff1b82141561100157611001611005565b0390565b634e487b7160e01b600052601160045260246000fd5b634e487b7160e01b600052601260045260246000fd5b6001600160a01b038116811461104657600080fd5b5056fea2646970667358221220dbc1221e237704a48610c7fb647020ae0493a0fc1adc53ba81833e493b56717a64736f6c63430008040033",
  "devdoc": {
    "kind": "dev",
    "methods": {},
    "version": 1
  },
  "userdoc": {
    "kind": "user",
    "methods": {},
    "version": 1
  },
  "storageLayout": {
    "storage": [],
    "types": null
  }
}